:1002D400C0F9A4B0999282F880908883C6A1868ED2
:0E02E400010D00010C00020A000002080000DB
:10015F007510017511011202C4C290C294D291D2CE
:10016F0092D293C2A4C2A5C2A6C2A7C2A3C2A21210
:10017F00000E209116E510640170107F0FFE120221
:10018F008BE4F51020910A050D8006309103751050
:10019F0001209203750D05209316E511640170106F
:1001AF007F0FFE12028BE4F51120930AB2948006A2
:0E01BF003093037511011202221202AB80B1BF
:1002AB00C3E509943CE5089400400DE4F508F50915
:0902BB00050BE50B7002050A2297
:10022200AE0AAF0B7C007D0A1201CDAB07AE0AAF5E
:100232000B7C007D0A1201CD8D12AF03EF9002D428
:1002420093F580D2A07F0A7E0012028BC2A0E51233
:100252009002D493F580D2A17F0A7E0012028BC253
:01026200A1FA
:010263002278
:10000E00AF0D7E00EF700CC290C2A4C2A5C2A6C2F4
:10001E00A7D2A3EF64014E7025D2A4C2A5C2A6C278
:10002E00A7C2A3C3E50B940FE50A94004010E4F5B4
:10003E000AF50BD2907FDC7E0512028BC290E50D85
:10004E0064027025C2A4D2A5C2A6C2A7C2A3C3E5EC
:10005E000B940FE50A94004010E4F50AF50BD290CC
:10006E007FB87E0B12028BC290E50D64037025C221
:10007E00A4C2A5D2A6C2A7C2A3C3E50B940FE50ADC
:10008E0094004010E4F50AF50BD2907F707E1712A3
:10009E00028BC290E50D64047002F50DE50D64054A
:1000AE007022C2A4C2A5C2A6D2A7C2A3D2907F9824
:1000BE007E3A12028BC290E4F50DF50AF50B7FC85D
:0500CE00FE12028B226E
:03000B000202648A
:02026400C0E0F8
:10026600758CD8758AF0050FE50F7002050E64646B
:10027600450E700EF50EF50F0509E5097002050825
:02028600B2A222
:03028800D0E03291
:1002C400758901758CD8758AF0D2AFD2A9D28C22E7
:10028B00E4FDFCC3ED9FEC9E5015E4FBFA0BBB00A9
:0F029B00010AEB646E4A70F50DBD00010C80E4A2
:0102AA002231
:030000000200D328
:0C00D300787FE4F6D8FD75811202011A56
:1001CD00BC000BBE0029EF8DF084FFADF022E4CC16
:1001DD00F875F008EF2FFFEE33FEEC33FCEE9DECDF
:1001ED00984005FCEE9DFE0FD5F0E9E4CEFD22ED25
:1001FD00F8F5F0EE8420D21CFEADF075F008EF2F6F
:10020D00FFED33FD4007985006D5F0F222C398FD5F
:05021D000FD5F0EA22FC
:1000DF0002015FE493A3F8E493A34003F68001F2D7
:1000EF0008DFF48029E493A3F85407240CC8C33322
:1000FF00C4540F4420C8834004F456800146F6DFF1
:10010F00E4800B01020408102040809002E4E47E9A
:10011F00019360BCA3FF543F30E509541FFEE493E5
:10012F00A360010ECF54C025E060A840B8E493A3AC
:10013F00FAE493A3F8E493A3C8C582C8CAC583CAD7
:10014F00F0A3C8C582C8CAC583CADFE9DEE780BE8F
:0102F200000B
:00000001FF
